:400000000080002011000000F9070000F907000008B5044B1A6803F53F5302331A6000F00BFC00BFFA46004010B5054C237833B9044B13B10448AFF300800123237010BD70
:400040004881FF1F00000000381B0000084B10B51BB108490848AFF300800848036803B910BD074B002BFBD0BDE81040184700BF000000004C81FF1F381B0000C880FF1F5C
:4000800000000000F8B562B600F098F801F04EF800F05CFC00F0FCFC3A4801F0C9F83A4801F098F800F0F8F84FF4FA7000F0CEFF364A2F21182000F087F8354B187000286C
:4000C000F2D1324B1B7813F0400FEDD0314B324A12782821182000F095F800243EE004EB440253002B49CA5C581C085C42EA002242F38912294820F81420981C085CDD1C76
:400100004D5D40EA0520264E40F3891026F81400181D085C0533CB5C40EA0323214F43F3891327F81430204D2049284601F0E0F8284600F03BFC36F914201D49284601F09D
:40014000D7F8284600F032FC37F914201949284601F0CEF8284600F029FC01341F2CBEDD154D00222A702E21182000F07DF8084C207040222A702E21182000F075F820703D
:4001800092E700BF650500002D0500005C83FF1F0E83FF1F4482FF1FCC80FF1F0482FF1F1C83FF1FBC81FF1F6481FF1F3C1B0000481B0000541B00001783FF1F08B500F024
:4001C000BBFC002008BD00BFF8B506460D461746002100F02DFE044668B9284600F0BAFE044640B90121304600F062FE044610B900F0DCFE387000F091FE201C18BF0120DB
:40020000F8BD00BF2DE9F04180460C4616461F46002100F00DFE0546F0B944F0800000F099FE0546C0B90121404600F041FE054650B111E0C4EB0608012000F0B7FE07F885
:400240000800013CE4B200E03446012CF2D8013E002000F0ABFEB85500F060FE281C18BF0120BDE8F08100BF70B50D461646002100F0DEFD044640B9284600F06BFE0446DA
:4002800018B9304600F066FE044600F047FE201C18BF012070BD00BF30B583B0052000F0D5FE0021182000F0C3FD30B98A4C204600F056FF204600F079FB00F02FFE874CD7
:4002C000204600F073FB864D284600F06FFB204600F06CFB204600F043FF284600F040FF204600F03DFF0A2000F0B0FE7D4C204600F036FF204600F059FB00240DE07A4D7D
:4003000022467A49284600F0F3FF284600F028FF284600F04BFB0134E4B20F2CEFD900242BE014F00F0F0BD16F4D22467049284600F0DEFF284600F039FB284600F010FF07
:400340000021204600F074FD60B9674D22466749284600F0CDFF284600F028FB284600F0FFFE06E0634D284600F0FAFE284600F01DFB00F0D3FD0134E4B214F0800FD0D08A
:400380005D4C204600F012FB204600F0E9FE0DF107020F211820FFF717FF58B9524C33239DF807205549204600F0A2FF204600F0FDFA02E0524800F0F9FA0DF10602272129
:4003C0001820FFF701FF50B9474C9DF806204D49204600F08DFF204600F0E8FA02E04A4800F0E4FA272202AC04F8032D20211820FFF73AFF224620211820FFF7E5FE50B9F8
:40040000394C9DF805204149204600F071FF204600F0CCFA02E03E4800F0C8FA002202AC04F8042D23211820FFF71EFF224623211820FFF7C9FE50B92B4C9DF80420354913
:40044000204600F055FF204600F0B0FA02E0324800F0ACFA402202AC04F8052D24211820FFF702FF224624211820FFF7ADFE50B91D4C9DF803202949204600F039FF204618
:4004800000F094FA02E0264800F090FA9DF8022002F04002D2B202AC04F8062D2E211820FFF7E2FE22462E211820FFF78DFE50B90D4C9DF802201B49204600F019FF20468A
:4004C00000F074FA02E0164800F070FA164800F06DFA03B030BD00BF601C0000801C0000941C0000A81C00006481FF1FB01C0000B81C0000C01C0000C41C0000C81C000021
:40050000041D0000381D0000581D0000841D0000A41D0000D01D0000F01D00001C1E00003C1E0000681E00008C1E000008B500F01BFA0A4B187053280CD002D8412805D0A2
:4005400008BD612802D0732804D008BD0122044B1A7008BD0222024B1A7008BD6183FF1F5E83FF1F08B500F04DFA074B1B78012B08D100F053FDB0FA80F04009034B18704E
:4005800000F040FD08BD00BF0483FF1F6083FF1FFEE700BFF0B40022174611E050F82760F3B226F0FF0608E001EB420511F812406D78A5550132013BDBB2002BF4D1013724
:4005C0001C2FEBD9F0BC7047064B1B78DBB203F00701054A11701B09013213704422034B1A707047CF0100496E5800407658004008B50A46002100F072FE08BD38B51925D3
:400600002B4B1D8018232B4A13704FF49C71023211800232137045F6BF5227490A8002310B7002310A80254A13700222244B1A7008224FF040231A70032103F5007319707A
:40064000204B1B78DBB220490B70204B1A8041F25122023B1A8000240CE01D4B1B7803F0010343EA440404F003044FF4F07000F0EFFD013D0DB1032CEFD115B90320FFF7C6
:4006800087FF144B4FF480721A8007221A70002211490A704820023108701A700222033B1A700E4A137843F00F03137038BD00BF8040004082400040884000408E400040DD
:4006C0000043004008010049A146004022420040254200400440004006400040A243004008B500F0F1FD08BD38B572B6334A137843F00403137000240CE0314D6300191927
:400700004A0011462A44084691882858FFF770FF0134E4B20A2CF0D900240CE02848A20011194B000344B3F84C20996C586CFFF7D7FF0134E4B2012CF0D922494FF09040CF
:40074000FFF728FF204A137843F0020313701032137843F0020313701C4C237843F040032370A2F58632513A137843F0100313700A2217491748FFF7B3FF0822164917486F
:40078000FFF7AEFF0A2216491648FFF7A9FF164A137843F008031370144D61232B70FFF72DFF81232B700122114B1A70FFF70CFF0E2221460F48FFF793FF38BDE84600409F
:4007C000A81E00007400004803500140A04300404C060048C051004058060048125100406006004820510040224300400048004004000840B043004008B500F039FD036833
:400800000C2B00D1FEE7FEE708B5094B1A681044084BC31A802B02DC054B186005E000F027FD0C2303604FF0FF32104608BD00BFD080FF1F7883FF1F08B5104E104D16E0B4
:4008400029686B68AC68002204E051F8040B43F8040B0432A242F8D1E868002203E0002143F8041B04328242F9D11035013E002EE6D100F003FDFFF705FCFEE701000000AB
:400880005C1F000008B5104A104B1A60104A136843F40073136000230AE0032B03D80D4A52F8231000E00C490C4A42F8231001332F2BF2D90A4B1A780A4B1A70074A0A4B38
:4008C0001A60FFF711FF08BD0004FA050CED00E014ED00E000000000F90700000080FF1FBC760040C080FF1F08ED00E07222084B1A70202203331A700622A3F5B1731A70D2
:40090000472210331A70002251331A70704700BF8865004010B500F0A3FC04460A4A137843F0200313700332137843F010031370A2F20112137843F01003137000F076FB73
:40094000204600F091FC10BD9865004008B5054B1B7823B9FFF7CAFF0122024B1A70FFF7D9FF08BD9881FF1F084B1B78DBB213F0200F06D0064A1078C0B213F01E0F02D1C3
:400980007047002070470020704700BF6B6500404B650040034B1B7813F0040FFAD1024B187070476A6400404A64004038B5074B1B782BB938BDFFF7EDFF0134A4B201E0D0
:4009C00005460024285D0028F5D138BD9881FF1F084A137843F0010313701032137843F00103137002F64D32137843F001031370704700BFA3430040014B1870704700BF29
:400A0000034F0040014B1878704700BF034F0040014B1880704700BF044F0040014B1880704700BF064F004008B5164A137803F0010313700232137803F0FC031370124BB1
:400A40001A7802F0CF021A701A7842F030021A701A7802F0F0021A701A7842F00F021A700A4A137843F00103137040F2F310FFF7CFFF40F2F310FFF7D1FF0820FFF7BCFF52
:400A800008BD00BF004F00400B4F0040014F004008B5054B1B7823B9FFF7C6FF0122024B1A70FFF795FF08BD9A81FF1F38B50222114B1A7081220E3B1A70082202331A70EA
:400AC0000F2511331D70002401331C704FF400420A4B1A600721284600F0E2FA0849284600F0CAFA1022074B1A70074B1C70074B1C70074B1C7038BDD649004080E100E0A7
:400B0000610B00006283FF1F7183FF1F6483FF1F6583FF1F08B500F0A3FB064A137843F0040313701032137843F00403137000F09BFB08BDA543004008B5074B1B7823B9CB
:400B4000FFF7B4FF0122044B1A70FFF7E3FF4FF40042024B1A6008BD9B81FF1F00E100E038B5A54B1C78A54B1B7813F0400F00F03A81E4B214F0010F00F01D819F4B1B7846
:400B8000453B052B00F21481DFE813F006008200120112010600DF0004F0DF0504F00A04082C42D1954B1B78DBB2452B35D1944B1B7813F0FF0F10D0924B1B681B78DBB227
:400BC000914A137004228C4B1A7001228F4B1A7046228A4B1A702C46EDE08D4B1B7813F0020F0DD08B4A137843F00A0313706022824B1A704FF40042874B1A602C46DAE02E
:400C0000864A137843F0100313701022844B1A700422023B1A702C46CDE00022764B1A704A22764B1A702C46C5E00A2C2BD1794A137843F0A0031370754B1B7813F0020F7E
:400C400014D06E4B1B7813F0080F01D0092300E00A23704A11780B4313706022674B1A704FF400426C4B1A602C46A4E06B4A137843F0100313701022694B1A700422023BC6
:400C80001A702C4697E0002000F0DEF92C4692E014F0020F36D15D4B1A78D2B2584B1B78DBB29A4210D2594A1378DBB255490968CB5CDBB254490B7004214F4B1970137832
:400CC0000133DBB2137076E0514B1B7813F0020F0CD0504A137843F00A0313706022474B1A704FF400424C4B1A6064E04B4A137843F0100313701022494B1A700422023B3F
:400D00001A7058E0424B1B7813F0020F0CD0414A137843F09A0313706022384B1A704FF400423D4B1A6046E03C4A137843F01003137010223A4B1A700422023B1A70354AB5
:400D4000137843F09003137035E0364A1378DBB2354908682C490978C9B2C15413780133DBB213701278D2B2304B1B78DBB29A4203D21022204B1A701DE0254B1B7813F02B
:400D8000020F0CD0234A137843F00903137060221A4B1A704FF400421F4B1A600BE01F4A137843F0100313700022134B1A7002E0002000F049F914F0200F1CD00F4B1B78C0
:400DC00013F0080F01D0012300E00223114A11780B431370114A137803F0EF0313701022064B1A7038BD054B1B7813F0100F02D11022024B1A7038BDD74900406283FF1FA1
:400E00006683FF1F6883FF1FD84900406583FF1F7083FF1F7183FF1F80E100E0D6490040D94900406483FF1F6C83FF1F7283FF1F1A4B1B78DBB2102B29D1194B1B7813F03D
:400E4000080F26D14FF40042164B1A604000C0B229B140F001004922104B1A7002E045220E4B1A70104B1870012201331A700F4B1B7813F0010FFAD00C4B1B7803F00A0353
:400E80000A2B08D11022054B1A700320704702207047012070470020704700BF6283FF1FD949004080E100E0D8490040D7490040164B1B7813F0040F23D04000C0B229B107
:400EC00040F001004922124B1A7002E04522104B1A70104B1870122201331A700422023B1A700D4B1B7813F0010FFAD00A4B1B7803F00A030A2B06D11022054B1A70032094
:400F00007047022070470020704700BFD94900406283FF1FD8490040D74900400A4B1B7813F0040F0ED01023074A13700421023A1170064A1370064B1B7813F0210FFAD0EC
:400F40000020704702207047D94900406283FF1FD7490040114B1B7813F0040F1BD0104B18700422013B1A7046220E4B1A700E4B1B7813F0010FFAD00B4B1B7813F0020F2C
:400F800004D16022074B1A70002070476022054B1A70032070470220704700BFD9490040D84900406283FF1FD7490040114B1B7813F0040F1BD0104B1B78DBB2492B05D17E
:400FC00000220E4B1A704A220B4B1A700B4B1B7813F0010FFAD00A4B1B78DBB218B11021064A117004E06021034A117000E0002318467047D94900406283FF1FD74900408A
:40100000D8490040044A137803F0FD03400000F0020018431070704720510040024B1878C0F34000704700BF21510040054A137843F0020313701032137843F002031370F9
:40104000704700BFA243004001BE704710B5044605E0084B186800F0FBF8A4F50044B4F5004FF6D8034B586800FB04F000F0F0F810BD00BFD480FF1F70B504460E46074B2A
:401080001D681F2802D90020FFF7DEFF04F01F04103455F8240045F8246070BD08ED00E038B504460D46072902D90020FFF7CCFF1F2C02D90020FFF7C7FF04F01F0000F18B
:4010C000604000F564406D01EDB2057038BD00BF7222074B1A702022033B1A700622A2331A70472210331A7000224F331A7070478B64004010B500F0B3F804460A4A1378AD
:4011000043F020031370033A137843F01003137002F20112137843F01003137000F032F8204600F0A1F810BD9B64004008B5054B1B7823B9FFF7CCFF0122024B1A70FFF7A8
:40114000D9FF08BD9C81FF1F034B1B7813F0040FFAD1024B18707047696500404965004038B5074B1B782BB938BDFFF7EDFF0134A4B201E005460024285D0028F5D138BD7D
:401180009C81FF1F054A137843F0010313701032137843F001031370704700BFA2430040014B1B681864704708ED00E04001C0B2014B1870704700BF00E400E00122014B37
:4011C0001A60704700E100E00122014B1A60704780E100E010B50446FFF7F6FF2046FFF7DFFF0720FFF7E2FFFFF7E8FF10BD00BF024B1B68C3F88400704700BF08ED00E027
:401200004001C0B2014B1870704700BF11E400E04FF40032014B1A60704700BF00E100E04FF40032014B1A60704700BF80E100E010B50446FFF7F4FF2046FFF7D9FF072025
:40124000FFF7DEFFFFF7E4FF10BD00BF000000000230800803D000BF01380046FCD17047EFF3108072B6704780F31088704700BF014B1868704700BF4481FF1F0E4B70B572
:401280001E460E4C0025E41AA410A54204D056F8253098470135F8E700F04EFE084B094C1E46E41AA4100025A54204D056F8253098470135F8E770BD441F0000441F0000E3
:4012C000441F00004C1F000010B5431E0A44914204D011F8014B03F8014FF8E710BD03460244934202D003F8011BFAE7704700000EB400B54FF402719CB0ADF814106FF033
:401300000041049107914FF6FF711DAB02900690084853F8042BADF81610006802A9019300F064F8029B00221A701CB05DF804EB03B070474481FF1F2DE9F0478E68824661
:401340009E420C46914698463ED88A8912F4906F3AD02568096902236F1A656905EB450595FBF3F57B1C43449D4238BF1D4653050FD5294600F040FB064698B13A46216955
:40138000FFF7A2FFA38923F4906343F08003A38113E02A4600F08EFB064670B92169504600F0DEFA0C23CAF80030A3894FF0FF3043F04003A381BDE8F08726613E4426604D
:4013C00046466561ED1BA560464528BF464649463246206800F0A8FAA36800209B1BA36023681E442660BDE8F08700002DE9F04F9DB003938B8980461C060D4616460DD537
:401400000B695BB9402100F0F7FA2860286118B90C23C8F80030CDE040236B610023099320238DF82930DFF89CB130238DF82A3037463C4614F8013B1BB9B7EB060910D023
:4014400003E0252BF9D02746F3E74B46324629464046FFF771FF013000F0A780099B4B4409933B78002B00F0A08000234FF0FF3204930793059206938DF853301A930126F0
:40148000052221784E4800F041FA671C049B38B14B4A3C46801A06FA00F018430490EFE7D90644BF20228DF853201A0744BF2B228DF8532022782A2A03D0079A00210A2008
:4014C0000BE0039A111D12680391002A10DA524243F00200079204900BE027463B780134303B092B03D800FB02320121F5E701B107923B782E2B1ED17B782A2B0AD1039B30
:4015000002371A1D1B680392002BB8BF4FF0FF33059310E0002319460593781C0A2407463A780130303A092A03D804FB01210123F5E703B1059103223978224800F0E6F98A
:4015400040B14023CBEB000003FA00F0049B013718430490397806221B487E1C8DF8281000F0D4F988B1194B33B9039B073323F007030833039314E003AB00932A46144B0B
:4015800004A94046AFF3008007E003AB00932A460F4B04A9404600F093F8B0F1FF3F824603D0099B5344099342E7AB895B0601D4099801E04FF0FF301DB0BDE8F08F00BFB2
:4015C000021F0000081F00000C1F000000000000391300002DE9F04791461F460A698B6806469342B8BF1346C9F8003091F843200C46DDF8208012B10133C9F80030236835
:40160000990642BFD9F800300233C9F80030256815F0060510D104F1190A07E00123524639463046C04701301AD00135E368D9F800209B1A9D42F1DB94F843302268003305
:4016400018BF012392060FD5E118302081F843005A1C94F845102244023382F8431003E04FF0FF30BDE8F08704F1430239463046C0470130F4D02268D9F80050E36802F0AF
:401680000602042A08BF5D1B2269A3680CBF25EAE57500259342C4BF9B1AED184FF000091A344D4509D00123224639463046C0470130D5D009F10109F3E70020BDE8F0873B
:4016C0002DE9F04317460A7E85B06E2A984606460C460C9B01F1430E00F0AE8011D8632A22D009D8002A00F0BB80582A40F0CA8081F84520834955E0642A1ED0692A1CD0F7
:40170000C0E0732A00F0B08009D86F2A2ED0702A40F0B8800A6842F020020A603EE0752A24D0782A3AD0ADE01A6801F14205111D1960136884F84230A8E021681A6811F059
:40174000800F02D0111D196008E011F0400F02F10401196002D0B2F9003000E01368002B3CDA2D225B4284F8432037E021681A6811F0800F02D0111D196007E011F0400F42
:4017800002F10401196001D0138800E01368227E5C496F2A14BF0A2208221BE078225A4984F845202268186812F0800F00F104051D6003D1550601D5038800E00368D0070D
:4017C00044BF42F0200222601BB9226822F0200222601022002084F8430001E049490A226568002DA56008DB206820F0040020602BB9002D7DD175460CE0002B79D0754619
:40180000B3FBF2F002FB1033CB5C05F8013D03460028F5D1082A0BD12368DA0708D5236962689A42DEBF302305F8013C05F1FF35C5EB0E0323612EE008681A6810F0800F8E
:40184000496903D0101D1860136808E010F0400F02F104001860136801D0198000E0196000232361754616E01A68111D1960156800216268284600F049F808B1401B606083
:40188000636804E004F1420584F8422001232361002384F84330CDF800803B4603AA21463046FFF797FE013002D14FF0FF3026E023692A4639463046C0470130F5D02368D9
:4018C0009B0710D5002504F1190907E001234A4639463046C0470130E7D00135E368039A9B1A9D42F2DBE068039B9842B8BF184605E00B7804F1420584F842308AE705B0DA
:40190000BDE8F083131F0000241F000010B5C9B202449042034605D01C7801308C42F8D1184610BD002010BD884210B501EB020301D8421E0BE09842FBD28118D21AD3424B
:4019400004D013F8014D01F8014DF8E710BD994204D011F8014B02F8014FF8E710BD000038B50546002944D051F8043C0C1F002BB8BFE41800F0D4F81E4A1368114613B9C4
:401980006360146030E0A3420DD92268A018834201BF18685B681218226063600C6023E0A24203D813465A68002AF9D118681918A1420BD12168014458188242196013D190
:4019C00010685268014419605A600DE002D90C232B6009E021686018824201BF106852680918216062605C602846BDE8384000F098B838BDA481FF1F70B5CD1C25F00305CD
:401A000008350C2D38BF0C25002D064601DBA94202D90C23336046E000F082F8234B1C681A462146A1B10B685B1B0ED40B2B03D90B60CC18CD501EE08C420BBF63684B6833
:401A40001360636018BF0C4615E00C464968E9E7174C23681BB9304600F052F820602946304600F04DF8431C18D0C41C24F00304A0420DD12560304600F053F804F10B00FB
:401A8000231D20F00700C31A0ED05A42E25070BD211A304600F034F80130EBD10C233360304600F03EF8002070BD00BFA481FF1FA081FF1FF8B5074615460E4621B9114699
:401AC000BDE8F840FFF798BF1AB9FFF749FF2846F8BD00F027F885420ED929463846FFF78BFF044650B131462A46FFF7EDFB31463846FFF735FF01E03046F8BD2046F8BD08
:401B000038B5064C0023054608462360FEF77CFE431C02D1236803B12B6038BD7483FF1F7047704751F8040C0028BEBF091851F8043CC01804387047000000007844617440
:401B4000613A20256400000079446174613A2025640000007A446174613A2025640000000D0A57726974696E67206E65772076616C7565732E2E2E0D0A0000000D0A5265F0
:401B8000676973746572207375636365737366756C6C79207772697474656E2061733A203078253032580D0A000000000D0A4572726F72206F63637572656420647572693F
:401BC0006E672049324320636F6D6D20746F2073657420746865207265676973746572200D0A00000D0A4572726F72206F63637572656420647572696E67204932432063AA
:401C00006F6D6D20746F20736574207468652072656769737465720D0A00000052656769737465722076616C75653A203078253032580D0A00000000493243206572726FDF
:401C400072207768696C652072656164696E67207468652072656769737465720D0A00004C495333444820666F756E642040206164647265737320307831380D0A00000031
:401C80002A2A2A2A2A2A2A2A2A2A2A2A2A2A0D0A000000002A2A20493243205363616E202A2A0D0A000000000A0A20202000000025303258200000000A25303258200000E3
:401CC0002D2D20000A0A000057484F414D492072656769737465722076616C75653A20307825303258205B45787065637465642076616C75653A203078253032585D0D0AAF
:401D000000000000493243206572726F72207768696C652072656164696E67204C49533344485F57484F5F414D5F495F5245475F414444520D0A000053544154555320727B
:401D4000656769737465722076616C75653A203078253032580D0A00493243206572726F72207768696C652072656164696E67204C49533344485F5354415455535F524500
:401D8000470D0A004354524C20726567697374657220312076616C75653A203078253032580D0A00493243206572726F72207768696C652072656164696E67204C4953330F
:401DC00044485F4354524C5F524547310D0A00004354524C20726567697374657220342076616C75653A203078253032580D0A00493243206572726F72207768696C65209A
:401E000072656164696E67204C49533344485F4354524C5F524547340D0A00004354524C20726567697374657220352076616C75653A203078253032580D0A0049324320C3
:401E40006572726F72207768696C652072656164696E67204C49533344485F4354524C5F524547350D0A00004354524C207265676973746572204649464F2076616C7565E6
:401E80003A203078253032580D0A00000D0A436F6E66696775726174696F6E20636F6D706C6574650D0A0000C84900401900004F0040180000510040100030510040400078
:401EC000F05100401000000001400010001401408006001B0140000100400140000A004C01400002005001402000000060520040C40500480600801A0140CC050048800080
:401F00004300232D302B2000686C4C006566674546470030313233343536373839414243444546003031323334353637383961626364656600000000F8B500BFF8BC08BC87
:401F40009E4670474D00000085080000F8B500BFF8BC08BC9E46704729000000701F0000C880FF1F80000000300200000000000000000000C00000007883FF1F0000E02EB6
:401F8000C05D00001800000000366E010000000000000000000000000000000000000000000000000000000000000000001F00000000000000000000000000000000000028
:401FC0000000000000000000000000000000000000000000000000000000000000000000000000000000000000000000E480FF1F000000000000000000000000000000005F
:4020000000000000000000000000000000000000000000000000000000000000000000000000000000000000000000000000000000000000000000000000000000000000A0
:402040000000000000000000000000000000000000000000000000000000000000000000000000000000000000000000000000000000000000000000000000000000000060
:402080000000000000000000000000000000000000000000000000000000000000000000000000000000000000000000000000000000000000000000000000000000000020
:4020C00000000000000000000000000000000000000000000000000000000000000000000000000000000000000000000000000000000000000000000000000000000000E0
:020000040003F7
:0200000480007A
:40000000044F0040035200400364004003650040010501407308014048090140490A01403D0B0140040C0140010D01400415014001170140561801403E190140251A01407D
:400040004C1B014002400140014101400942014002430140044501400546014004480140134901400A4C01400C4D0140045001400251014001200A4B0D30164B10101110D1
:40008000140888388A0F8B728872890F8B38EA080310072008E70B2013101444150C162A170318021A151B081D061F09210623012421264A270328E729042B012C80308098
:4000C000310132603310340735203618370F3B803E403F15405441024206440145EC480349FF4AFF4BFF4C624DA04EF04F41500C5418580459045A045B045C105F01664074
:40010000670269106A306B106D106E106F128010820C871C88208A038C108D818F36900C9211959C972399409B039D819F3AA014A304A409A610A81CAA02B182B21FB31654
:40014000B560B620B70FB922BB88BE40BF01C004C540C9FFCA07CBFFCC40CD20CEF0CF05D008D804D904DA04DC11DD01DF01E040E1A8E240E3200090028007040B800E1489
:40018000108012281544171018101A011D821E3420442140222825042680274829012C202F44302031403288332036A83702380439803B803C203D013F1840404592486006
:4001C00049014D014E024F185E026580662089808B0891449308958096049B169D609F40A090A110A203A502A610A720A921B020B304C04BC268C4EECAE1CCFECEEAD0B10D
:40020000D230D680D8300804180126023201340436023E1440524101450C46EB480D49FF4AFF4BFF4EF04F44500C540158045A045B045D115F0166C06A406B028110847F5C
:400240008560885C89188A238C738D1C8E0C8FE1901F9260936394029508980399409C019DE79F18A008A124A404A51CA7E2A80CA9FFAE63AF04B02CB160B24CB31FB40FA0
:40028000B610B780B980BA22BB28BE40D602D713D804D904DB04DF010040012002020464060809200C400D800E6411341401172919841A081C201D101E41242425102601FD
:4002C00027022C402D902E08300131023401369037083E664140432049404B0850805120582059055B405E016D406F14762277298A048C408D108E809104A180AF40B1841C
:40030000C0E2C2F2C4F4CAF0CCF0CEF0D00CD208D68F38803E4058045F011F40E008E602E820EA05E20402030302047F08080C10103C1242143C164118671A182204230167
:40034000240427012818301F322035013640370238803A223E043F1056025711580459045B045C115D105F01840985538610870C89208A038B458C1C8D0A8E028F54940CCA
:40038000955396119704982099039B449C10A014A708A810AA0CB140B220B30FB41FB530B920BB08BE04BF01C032C106C5ECC60BC70EC817C9FFCAFFCBFFCEF0CF44D00C11
:4003C000D401D804D904DA04DB04DF01E6C0EA40EB02004001280220040405100611074009080B090D010E68108012081420172219241C141E401F8021042228238025109E
:40040000270229082FA030383108386039283C024114440845104828490150805304581059055B805C106E146F017510760177209D20A904AA20AE01C0F7C277C47ACAC2B5
:40044000CC06CE8ED006D204D62FE204E808056107160B230D5C0F0312011561170E1B1C22012308310F331A3560360139203B0A3E403F104002454049FF4A074BFF4C406E
:400480004D204EF04F055008580459045A045F01604061A86240632004800510068007200A400E280F02108014041502161119401D021E69204421082480254026022758A7
:4004C00029013108322034043709386039083C023D803E943F02400445024610471049014A0C4B014C804E0A501057205E0164086540674087408821910A92149460970175
:40050000980899109A119B219C209F40A220A401A508A614A720C0F0C2E8C4F8CA01CCC6CEFED0E4D230D680D8B0E008E820EA053010CC109C103E105B085F089B089C10FA
:40054000AF08CE20D6C0EA1096109C1005206708C001D8018B049708B120E001EA04822096109C10E2201302164072207710841086409A209B109C109F02AA10AB10B30248
:40058000C430DC80DE20E010E640EAA010801320170878107F4080809310AF10C40EDE03104073108740884093109780AB28B010C408DC01E201E80400030C0310031C03A4
:4005C000000303C00280000040000000630900460C9F0000049F00000004F338008000000F12F045F3000C00210000001C00E300FF00000042000000080000001C808C607E
:400600000F03601C00002800000000046503040002C0E0000AFFFFFF62A0F0410C000000180004000404040411110001000000000000400200103010001010120000000099
:40064000000000000000000000000000830050808300830000000000000B0B00000000001000081212001000000000000000000000000000000000000000000000000000BF
:40068000000000000000000000000000000000000000000000000000000000000000000000000000000000000000000000000000000000000000000000000000000000003A
:4006C00000000000000000000000000000000000000000000000000000000000000000000000000000000000000000000000000000000000000000000000000000000000FA
:4007000000000000000000000000000000000000000000000000000000000000000000000000000000000000000000000000000000000000000000000000000000000000B9
:400740000000000000000000000000000000000000000000000000000000000000000000000000000000000000000000000000000000000000000000000000000000000079
:0200000490006A
:0400000000004005B7
:0200000490105A
:04000000BC90ACAF55
:0200000490303A
:02000000D8B86E
:0200000490402A
:4000000000000000000000000000000000000000000000000000000000000000000000000000000000000000000000000000000000000000000000000000000000000000C0
:400040000000000000000000000000000000000000000000000000000000000000000000000000000000000000000000000000000000000000000000000000000000000080
:400080000000000000000000000000000000000000000000000000000000000000000000000000000000000000000000000000000000000000000000000000000000000040
:4000C0000000000000000000000000000000000000000000000000000000000000000000000000000000000000000000000000000000000000000000000000000000000000
:0200000490501A
:0C00000000012E16106900012E22E921DB
:00000001FF